{
    "_format": "hh-sol-artifact-1",
    "contractName": "TokenizedBallot",
    "sourceName": "contracts/TokenizedBallot.sol",
    "abi": [
        {
            "inputs": [
                {
                    "internalType": "bytes32[]",
                    "name": "proposalNames",
                    "type": "bytes32[]"
                },
                {
                    "internalType": "address",
                    "name": "_tokenContract",
                    "type": "address"
                },
                {
                    "internalType": "uint256",
                    "name": "_targetBlockNumber",
                    "type": "uint256"
                }
            ],
            "stateMutability": "nonpayable",
            "type": "constructor"
        },
        {
            "inputs": [
                {
                    "internalType": "uint256",
                    "name": "",
                    "type": "uint256"
                }
            ],
            "name": "proposals",
            "outputs": [
                {
                    "internalType": "bytes32",
                    "name": "name",
                    "type": "bytes32"
                },
                {
                    "internalType": "uint256",
                    "name": "voteCount",
                    "type": "uint256"
                }
            ],
            "stateMutability": "view",
            "type": "function"
        },
        {
            "inputs": [
                {
                    "internalType": "uint256",
                    "name": "_targetBlockNumber",
                    "type": "uint256"
                }
            ],
            "name": "setTargetBlockNumber",
            "outputs": [],
            "stateMutability": "nonpayable",
            "type": "function"
        },
        {
            "inputs": [],
            "name": "targetBlockNumber",
            "outputs": [
                {
                    "internalType": "uint256",
                    "name": "",
                    "type": "uint256"
                }
            ],
            "stateMutability": "view",
            "type": "function"
        },
        {
            "inputs": [],
            "name": "tokenContract",
            "outputs": [
                {
                    "internalType": "contract IMyToken",
                    "name": "",
                    "type": "address"
                }
            ],
            "stateMutability": "view",
            "type": "function"
        },
        {
            "inputs": [
                {
                    "internalType": "uint256",
                    "name": "proposal",
                    "type": "uint256"
                },
                {
                    "internalType": "uint256",
                    "name": "amount",
                    "type": "uint256"
                }
            ],
            "name": "vote",
            "outputs": [],
            "stateMutability": "nonpayable",
            "type": "function"
        },
        {
            "inputs": [
                {
                    "internalType": "address",
                    "name": "account",
                    "type": "address"
                }
            ],
            "name": "votingPower",
            "outputs": [
                {
                    "internalType": "uint256",
                    "name": "",
                    "type": "uint256"
                }
            ],
            "stateMutability": "view",
            "type": "function"
        },
        {
            "inputs": [
                {
                    "internalType": "address",
                    "name": "",
                    "type": "address"
                }
            ],
            "name": "votingPowerSpent",
            "outputs": [
                {
                    "internalType": "uint256",
                    "name": "",
                    "type": "uint256"
                }
            ],
            "stateMutability": "view",
            "type": "function"
        },
        {
            "inputs": [],
            "name": "winnerName",
            "outputs": [
                {
                    "internalType": "bytes32",
                    "name": "winnerName_",
                    "type": "bytes32"
                }
            ],
            "stateMutability": "view",
            "type": "function"
        },
        {
            "inputs": [],
            "name": "winningProposal",
            "outputs": [
                {
                    "internalType": "uint256",
                    "name": "winningProposal_",
                    "type": "uint256"
                }
            ],
            "stateMutability": "view",
            "type": "function"
        },
        {
            "stateMutability": "payable",
            "type": "receive"
        }
    ],
    "bytecode": "0x60806040523480156200001157600080fd5b5060405162000dd438038062000dd4833981810160405281019062000037919062000384565b81600160006101000a81548173ffffffffffffffffffffffffffffffffffffffff021916908373ffffffffffffffffffffffffffffffffffffffff1602179055508060008190555060005b8351811015620001165760026040518060400160405280868481518110620000af57620000ae620003ff565b5b60200260200101518152602001600081525090806001815401808255809150506001900390600052602060002090600202016000909190919091506000820151816000015560208201518160010155505080806200010d906200045d565b91505062000082565b50505050620004aa565b6000604051905090565b600080fd5b600080fd5b600080fd5b6000601f19601f8301169050919050565b7f4e487b7100000000000000000000000000000000000000000000000000000000600052604160045260246000fd5b620001848262000139565b810181811067ffffffffffffffff82111715620001a657620001a56200014a565b5b80604052505050565b6000620001bb62000120565b9050620001c9828262000179565b919050565b600067ffffffffffffffff821115620001ec57620001eb6200014a565b5b602082029050602081019050919050565b600080fd5b6000819050919050565b620002178162000202565b81146200022357600080fd5b50565b60008151905062000237816200020c565b92915050565b6000620002546200024e84620001ce565b620001af565b905080838252602082019050602084028301858111156200027a5762000279620001fd565b5b835b81811015620002a7578062000292888262000226565b8452602084019350506020810190506200027c565b5050509392505050565b600082601f830112620002c957620002c862000134565b5b8151620002db8482602086016200023d565b91505092915050565b600073ffffffffffffffffffffffffffffffffffffffff82169050919050565b60006200031182620002e4565b9050919050565b620003238162000304565b81146200032f57600080fd5b50565b600081519050620003438162000318565b92915050565b6000819050919050565b6200035e8162000349565b81146200036a57600080fd5b50565b6000815190506200037e8162000353565b92915050565b600080600060608486031215620003a0576200039f6200012a565b5b600084015167ffffffffffffffff811115620003c157620003c06200012f565b5b620003cf86828701620002b1565b9350506020620003e28682870162000332565b9250506040620003f5868287016200036d565b9150509250925092565b7f4e487b7100000000000000000000000000000000000000000000000000000000600052603260045260246000fd5b7f4e487b7100000000000000000000000000000000000000000000000000000000600052601160045260246000fd5b60006200046a8262000349565b91507fffffffffffffffffffffffffffffffffffffffffffffffffffffffffffffffff82036200049f576200049e6200042e565b5b600182019050919050565b61091a80620004ba6000396000f3fe60806040526004361061008a5760003560e01c8063609ff1bd11610059578063609ff1bd14610153578063a72003511461017e578063b384abef146101bb578063c07473f6146101e4578063e2ba53f01461022157610091565b8063013cf08b146100965780632a8cd29e146100d457806332da83e8146100ff57806355a373d61461012857610091565b3661009157005b600080fd5b3480156100a257600080fd5b506100bd60048036038101906100b89190610563565b61024c565b6040516100cb9291906105b8565b60405180910390f35b3480156100e057600080fd5b506100e9610280565b6040516100f691906105e1565b60405180910390f35b34801561010b57600080fd5b5061012660048036038101906101219190610563565b610286565b005b34801561013457600080fd5b5061013d610290565b60405161014a919061067b565b60405180910390f35b34801561015f57600080fd5b506101686102b6565b60405161017591906105e1565b60405180910390f35b34801561018a57600080fd5b506101a560048036038101906101a091906106d4565b61033e565b6040516101b291906105e1565b60405180910390f35b3480156101c757600080fd5b506101e260048036038101906101dd9190610701565b610356565b005b3480156101f057600080fd5b5061020b600480360381019061020691906106d4565b610401565b60405161021891906105e1565b60405180910390f35b34801561022d57600080fd5b506102366104f4565b6040516102439190610741565b60405180910390f35b6002818154811061025c57600080fd5b90600052602060002090600202016000915090508060000154908060010154905082565b60005481565b8060008190555050565b600160009054906101000a900473ffffffffffffffffffffffffffffffffffffffff1681565b6000806000905060005b6002805490508110156103395781600282815481106102e2576102e161075c565b5b9060005260206000209060020201600101541115610326576002818154811061030e5761030d61075c565b5b90600052602060002090600202016001015491508092505b8080610331906107ba565b9150506102c0565b505090565b60036020528060005260406000206000915090505481565b8061036033610401565b101561036b57600080fd5b80600360003373ffffffffffffffffffffffffffffffffffffffff1673ffffffffffffffffffffffffffffffffffffffff16815260200190815260200160002060008282546103ba9190610802565b9250508190555080600283815481106103d6576103d561075c565b5b906000526020600020906002020160010160008282546103f69190610802565b925050819055505050565b6000600360008373ffffffffffffffffffffffffffffffffffffffff1673ffffffffffffffffffffffffffffffffffffffff16815260200190815260200160002054600160009054906101000a900473ffffffffffffffffffffffffffffffffffffffff1673ffffffffffffffffffffffffffffffffffffffff16633a46b1a8846000546040518363ffffffff1660e01b81526004016104a2929190610845565b602060405180830381865afa1580156104bf573d6000803e3d6000fd5b505050506040513d601f19601f820116820180604052508101906104e39190610883565b6104ed91906108b0565b9050919050565b600060026105006102b6565b815481106105115761051061075c565b5b906000526020600020906002020160000154905090565b600080fd5b6000819050919050565b6105408161052d565b811461054b57600080fd5b50565b60008135905061055d81610537565b92915050565b60006020828403121561057957610578610528565b5b60006105878482850161054e565b91505092915050565b6000819050919050565b6105a381610590565b82525050565b6105b28161052d565b82525050565b60006040820190506105cd600083018561059a565b6105da60208301846105a9565b9392505050565b60006020820190506105f660008301846105a9565b92915050565b600073ffffffffffffffffffffffffffffffffffffffff82169050919050565b6000819050919050565b600061064161063c610637846105fc565b61061c565b6105fc565b9050919050565b600061065382610626565b9050919050565b600061066582610648565b9050919050565b6106758161065a565b82525050565b6000602082019050610690600083018461066c565b92915050565b60006106a1826105fc565b9050919050565b6106b181610696565b81146106bc57600080fd5b50565b6000813590506106ce816106a8565b92915050565b6000602082840312156106ea576106e9610528565b5b60006106f8848285016106bf565b91505092915050565b6000806040838503121561071857610717610528565b5b60006107268582860161054e565b92505060206107378582860161054e565b9150509250929050565b6000602082019050610756600083018461059a565b92915050565b7f4e487b7100000000000000000000000000000000000000000000000000000000600052603260045260246000fd5b7f4e487b7100000000000000000000000000000000000000000000000000000000600052601160045260246000fd5b60006107c58261052d565b91507fffffffffffffffffffffffffffffffffffffffffffffffffffffffffffffffff82036107f7576107f661078b565b5b600182019050919050565b600061080d8261052d565b91506108188361052d565b92508282019050808211156108305761082f61078b565b5b92915050565b61083f81610696565b82525050565b600060408201905061085a6000830185610836565b61086760208301846105a9565b9392505050565b60008151905061087d81610537565b92915050565b60006020828403121561089957610898610528565b5b60006108a78482850161086e565b91505092915050565b60006108bb8261052d565b91506108c68361052d565b92508282039050818111156108de576108dd61078b565b5b9291505056fea2646970667358221220ab6b0449150439422d3b6d7f447ec542f0026514158f7e33ce9622e38d43f47e64736f6c63430008120033",
    "linkReferences": {},
    "deployedLinkReferences": {}
}